:1000000012C019C018C017C016C015C014C013C044
:1000100012C05BC110C00FC00EC00DC00CC00BC021
:100020000AC009C008C011241FBECFE5D4E0DEBF5E
:10003000CDBF07D09CC19AC153414D504C453A00A9
:1000400008953BD12DD18CD154D1403009F44CD1FD
:100050004ED19DD066D031D027D046D1FFCF089564
:100060006FD160D1F33058F0E83E48F01FE2889439
:100070001395E85EF340E0F770D0E851FC5F1FE2B3
:1000800088941395E456F040E0F767D0EC59FF5F91
:100090001FE288941395EA50E8F75FD0E65F1E2FC1
:1000A000105D5BD05AD108951AD011D0F82FE72FE8
:1000B000D7DFF6D0F5D0F8CF0895A3983E9A3F9AAF
:1000C000399A389A329A319A379A369A0895369AE6
:1000D000349BFECF74B1787F85B18370089530D1A1
:1000E00021D19AD05F70CAD0AFD098D05F70C2D003
:1000F000BDD0B8D093D031D1089522D113D18CD0B6
:100100005F70A2D08BD0B2D089D027D1089518D1FA
:1001100009D182D05F7098D081D0A4D07FD01DD17A
:100120000895F0E0E8E301D008950AD1FBD008D0AB
:10013000C895102D12D0E3956A95D1F70ED1089588
:10014000FF93EF936627C895102D103019F0639533
:10015000E395F9CFEF91FF9108955ED07BD05F706A
:1001600017FD8CD016FD86D015FD80D014FD7AD0F9
:10017000CCD054D05F70129517FD80D016FD7AD088
:1001800015FD74D014FD6ED0C0D048D0089588D02D
:1001900087D0D6D0C7D082D065D068D069D06CD097
:1001A00053D0B3D03BD085D084D083D0AED036D01E
:1001B0007CD0ABD033D079D053D0A7D02FD075D04E
:1001C00055D0A3D02BD05AD04FD09FD027D024D0F9
:1001D00053D09BD023D052D098D020D01DD04CD01B
:1001E00094D01CD03FD091D019D016D039D08DD01A
:1001F00015D040D03BD089D011D00ED039D034D0DA
:1002000084D00CD03BD036D031D02CD045D07DD04E
:1002100005D0A3D045D008954CD008953BD075D0DB
:10022000000000000000000033D06FD0089534D0EB
:1002300087D078D06AD091D0089530D02DD080D09A
:1002400071D063D08AD008951BD01ED0089518D0E5
:100250001DD0089517D018D0089514D017D0089540
:100260005F7E0895506108955F7D089550620895FE
:100270005F7B0895506408955F77089550680895EE
:100280005E7F0895516008955D7F089552600895DE
:100290005B7F08955460089558600895577F0895CE
:1002A00004E107D00150E9F7089524E02030F1F788
:1002B000089528E22030F1F7089501E003BF0BE92B
:1002C00002BF01E009BF78940895F8940F930FB727
:1002D0000F930BE902BF21500F910FBF0F9178943C
:1002E00018958F9A97980895FCDF979A08950000C3
:1002F00008954FE725D016D00F3F29F4002741502D
:10030000403009F0F7CF29D00895052F03B904E84C
:1003100006BF06B707FFFDCF01B1087F083209F01D
:10032000E3DF0895042F000F03B904E806BF06B702
:1003300007FFFDCF01B1087F083109F00FEF0895E5
:1003400004EA06BF06B707FFFDCF01B1087F0830FA
:1003500019F0003109F0C8DF089504E906BF0895D7
:100360000CE000B901B10C7F01B908951895F8941B
:02037000FFCFBD
:00000001FF
